{
  "_format": "hh-sol-artifact-1",
  "contractName": "SaoPaulo100",
  "sourceName": "contracts/SaoPaulo100.sol",
  "abi": [
    {
      "inputs": [],
      "stateMutability": "nonpayable",
      "type": "constructor"
    },
    {
      "anonymous": false,
      "inputs": [
        {
          "indexed": true,
          "internalType": "address",
          "name": "owner",
          "type": "address"
        },
        {
          "indexed": true,
          "internalType": "address",
          "name": "approved",
          "type": "address"
        },
        {
          "indexed": true,
          "internalType": "uint256",
          "name": "tokenId",
          "type": "uint256"
        }
      ],
      "name": "Approval",
      "type": "event"
    },
    {
      "anonymous": false,
      "inputs": [
        {
          "indexed": true,
          "internalType": "address",
          "name": "owner",
          "type": "address"
        },
        {
          "indexed": true,
          "internalType": "address",
          "name": "operator",
          "type": "address"
        },
        {
          "indexed": false,
          "internalType": "bool",
          "name": "approved",
          "type": "bool"
        }
      ],
      "name": "ApprovalForAll",
      "type": "event"
    },
    {
      "anonymous": false,
      "inputs": [
        {
          "indexed": false,
          "internalType": "uint256",
          "name": "_fromTokenId",
          "type": "uint256"
        },
        {
          "indexed": false,
          "internalType": "uint256",
          "name": "_toTokenId",
          "type": "uint256"
        }
      ],
      "name": "BatchMetadataUpdate",
      "type": "event"
    },
    {
      "anonymous": false,
      "inputs": [
        {
          "indexed": false,
          "internalType": "uint256",
          "name": "_tokenId",
          "type": "uint256"
        }
      ],
      "name": "MetadataUpdate",
      "type": "event"
    },
    {
      "anonymous": false,
      "inputs": [
        {
          "indexed": true,
          "internalType": "uint256",
          "name": "tokenId",
          "type": "uint256"
        },
        {
          "indexed": false,
          "internalType": "address",
          "name": "owner",
          "type": "address"
        },
        {
          "indexed": false,
          "internalType": "address",
          "name": "seller",
          "type": "address"
        },
        {
          "indexed": false,
          "internalType": "uint256",
          "name": "price",
          "type": "uint256"
        },
        {
          "indexed": false,
          "internalType": "bool",
          "name": "currentlyListed",
          "type": "bool"
        }
      ],
      "name": "TokenListedSuccess",
      "type": "event"
    },
    {
      "anonymous": false,
      "inputs": [
        {
          "indexed": true,
          "internalType": "address",
          "name": "from",
          "type": "address"
        },
        {
          "indexed": true,
          "internalType": "address",
          "name": "to",
          "type": "address"
        },
        {
          "indexed": true,
          "internalType": "uint256",
          "name": "tokenId",
          "type": "uint256"
        }
      ],
      "name": "Transfer",
      "type": "event"
    },
    {
      "inputs": [
        {
          "internalType": "address",
          "name": "to",
          "type": "address"
        },
        {
          "internalType": "uint256",
          "name": "tokenId",
          "type": "uint256"
        }
      ],
      "name": "approve",
      "outputs": [],
      "stateMutability": "nonpayable",
      "type": "function"
    },
    {
      "inputs": [
        {
          "internalType": "address",
          "name": "owner",
          "type": "address"
        }
      ],
      "name": "balanceOf",
      "outputs": [
        {
          "internalType": "uint256",
          "name": "",
          "type": "uint256"
        }
      ],
      "stateMutability": "view",
      "type": "function"
    },
    {
      "inputs": [
        {
          "internalType": "string",
          "name": "tokenURI",
          "type": "string"
        },
        {
          "internalType": "uint256",
          "name": "price",
          "type": "uint256"
        },
        {
          "internalType": "bool",
          "name": "currentlyListed",
          "type": "bool"
        }
      ],
      "name": "createToken",
      "outputs": [
        {
          "internalType": "uint256",
          "name": "",
          "type": "uint256"
        }
      ],
      "stateMutability": "payable",
      "type": "function"
    },
    {
      "inputs": [
        {
          "internalType": "uint256",
          "name": "tokenId",
          "type": "uint256"
        }
      ],
      "name": "executeSale",
      "outputs": [],
      "stateMutability": "payable",
      "type": "function"
    },
    {
      "inputs": [],
      "name": "getAllNFTs",
      "outputs": [
        {
          "components": [
            {
              "internalType": "uint256",
              "name": "tokenId",
              "type": "uint256"
            },
            {
              "internalType": "address payable",
              "name": "owner",
              "type": "address"
            },
            {
              "internalType": "address payable",
              "name": "seller",
              "type": "address"
            },
            {
              "internalType": "uint256",
              "name": "price",
              "type": "uint256"
            },
            {
              "internalType": "bool",
              "name": "currentlyListed",
              "type": "bool"
            }
          ],
          "internalType": "struct SaoPaulo100.ListedToken[]",
          "name": "",
          "type": "tuple[]"
        }
      ],
      "stateMutability": "view",
      "type": "function"
    },
    {
      "inputs": [
        {
          "internalType": "uint256",
          "name": "tokenId",
          "type": "uint256"
        }
      ],
      "name": "getApproved",
      "outputs": [
        {
          "internalType": "address",
          "name": "",
          "type": "address"
        }
      ],
      "stateMutability": "view",
      "type": "function"
    },
    {
      "inputs": [],
      "name": "getCurrentToken",
      "outputs": [
        {
          "internalType": "uint256",
          "name": "",
          "type": "uint256"
        }
      ],
      "stateMutability": "view",
      "type": "function"
    },
    {
      "inputs": [],
      "name": "getLatestIdToListedToken",
      "outputs": [
        {
          "components": [
            {
              "internalType": "uint256",
              "name": "tokenId",
              "type": "uint256"
            },
            {
              "internalType": "address payable",
              "name": "owner",
              "type": "address"
            },
            {
              "internalType": "address payable",
              "name": "seller",
              "type": "address"
            },
            {
              "internalType": "uint256",
              "name": "price",
              "type": "uint256"
            },
            {
              "internalType": "bool",
              "name": "currentlyListed",
              "type": "bool"
            }
          ],
          "internalType": "struct SaoPaulo100.ListedToken",
          "name": "",
          "type": "tuple"
        }
      ],
      "stateMutability": "view",
      "type": "function"
    },
    {
      "inputs": [],
      "name": "getListPrice",
      "outputs": [
        {
          "internalType": "uint256",
          "name": "",
          "type": "uint256"
        }
      ],
      "stateMutability": "view",
      "type": "function"
    },
    {
      "inputs": [
        {
          "internalType": "uint256",
          "name": "tokenId",
          "type": "uint256"
        }
      ],
      "name": "getListedTokenForId",
      "outputs": [
        {
          "components": [
            {
              "internalType": "uint256",
              "name": "tokenId",
              "type": "uint256"
            },
            {
              "internalType": "address payable",
              "name": "owner",
              "type": "address"
            },
            {
              "internalType": "address payable",
              "name": "seller",
              "type": "address"
            },
            {
              "internalType": "uint256",
              "name": "price",
              "type": "uint256"
            },
            {
              "internalType": "bool",
              "name": "currentlyListed",
              "type": "bool"
            }
          ],
          "internalType": "struct SaoPaulo100.ListedToken",
          "name": "",
          "type": "tuple"
        }
      ],
      "stateMutability": "view",
      "type": "function"
    },
    {
      "inputs": [],
      "name": "getMyNFTs",
      "outputs": [
        {
          "components": [
            {
              "internalType": "uint256",
              "name": "tokenId",
              "type": "uint256"
            },
            {
              "internalType": "address payable",
              "name": "owner",
              "type": "address"
            },
            {
              "internalType": "address payable",
              "name": "seller",
              "type": "address"
            },
            {
              "internalType": "uint256",
              "name": "price",
              "type": "uint256"
            },
            {
              "internalType": "bool",
              "name": "currentlyListed",
              "type": "bool"
            }
          ],
          "internalType": "struct SaoPaulo100.ListedToken[]",
          "name": "",
          "type": "tuple[]"
        }
      ],
      "stateMutability": "view",
      "type": "function"
    },
    {
      "inputs": [
        {
          "internalType": "address",
          "name": "owner",
          "type": "address"
        },
        {
          "internalType": "address",
          "name": "operator",
          "type": "address"
        }
      ],
      "name": "isApprovedForAll",
      "outputs": [
        {
          "internalType": "bool",
          "name": "",
          "type": "bool"
        }
      ],
      "stateMutability": "view",
      "type": "function"
    },
    {
      "inputs": [],
      "name": "name",
      "outputs": [
        {
          "internalType": "string",
          "name": "",
          "type": "string"
        }
      ],
      "stateMutability": "view",
      "type": "function"
    },
    {
      "inputs": [
        {
          "internalType": "uint256",
          "name": "tokenId",
          "type": "uint256"
        }
      ],
      "name": "ownerOf",
      "outputs": [
        {
          "internalType": "address",
          "name": "",
          "type": "address"
        }
      ],
      "stateMutability": "view",
      "type": "function"
    },
    {
      "inputs": [
        {
          "internalType": "uint256",
          "name": "tokenId",
          "type": "uint256"
        }
      ],
      "name": "resell",
      "outputs": [],
      "stateMutability": "payable",
      "type": "function"
    },
    {
      "inputs": [
        {
          "internalType": "address",
          "name": "from",
          "type": "address"
        },
        {
          "internalType": "address",
          "name": "to",
          "type": "address"
        },
        {
          "internalType": "uint256",
          "name": "tokenId",
          "type": "uint256"
        }
      ],
      "name": "safeTransferFrom",
      "outputs": [],
      "stateMutability": "nonpayable",
      "type": "function"
    },
    {
      "inputs": [
        {
          "internalType": "address",
          "name": "from",
          "type": "address"
        },
        {
          "internalType": "address",
          "name": "to",
          "type": "address"
        },
        {
          "internalType": "uint256",
          "name": "tokenId",
          "type": "uint256"
        },
        {
          "internalType": "bytes",
          "name": "data",
          "type": "bytes"
        }
      ],
      "name": "safeTransferFrom",
      "outputs": [],
      "stateMutability": "nonpayable",
      "type": "function"
    },
    {
      "inputs": [
        {
          "internalType": "address",
          "name": "operator",
          "type": "address"
        },
        {
          "internalType": "bool",
          "name": "approved",
          "type": "bool"
        }
      ],
      "name": "setApprovalForAll",
      "outputs": [],
      "stateMutability": "nonpayable",
      "type": "function"
    },
    {
      "inputs": [
        {
          "internalType": "bytes4",
          "name": "interfaceId",
          "type": "bytes4"
        }
      ],
      "name": "supportsInterface",
      "outputs": [
        {
          "internalType": "bool",
          "name": "",
          "type": "bool"
        }
      ],
      "stateMutability": "view",
      "type": "function"
    },
    {
      "inputs": [],
      "name": "symbol",
      "outputs": [
        {
          "internalType": "string",
          "name": "",
          "type": "string"
        }
      ],
      "stateMutability": "view",
      "type": "function"
    },
    {
      "inputs": [
        {
          "internalType": "uint256",
          "name": "tokenId",
          "type": "uint256"
        }
      ],
      "name": "tokenURI",
      "outputs": [
        {
          "internalType": "string",
          "name": "",
          "type": "string"
        }
      ],
      "stateMutability": "view",
      "type": "function"
    },
    {
      "inputs": [
        {
          "internalType": "address",
          "name": "from",
          "type": "address"
        },
        {
          "internalType": "address",
          "name": "to",
          "type": "address"
        },
        {
          "internalType": "uint256",
          "name": "tokenId",
          "type": "uint256"
        }
      ],
      "name": "transferFrom",
      "outputs": [],
      "stateMutability": "nonpayable",
      "type": "function"
    },
    {
      "inputs": [
        {
          "internalType": "uint256",
          "name": "_listPrice",
          "type": "uint256"
        }
      ],
      "name": "updateListPrice",
      "outputs": [],
      "stateMutability": "payable",
      "type": "function"
    }
  ],
  "bytecode": "0x60806040526509184e72a000600a553480156200001b57600080fd5b50604080518082018252600b81526a053616f5061756c6f3130360ac1b6020808301918252835180850190945260048452634e46544d60e01b9084015281519192916200006b916000916200009c565b508051620000819060019060208401906200009c565b5050600980546001600160a01b03191633179055506200017f565b828054620000aa9062000142565b90600052602060002090601f016020900481019282620000ce576000855562000119565b82601f10620000e957805160ff191683800117855562000119565b8280016001018555821562000119579182015b8281111562000119578251825591602001919060010190620000fc565b50620001279291506200012b565b5090565b5b808211156200012757600081556001016200012c565b600181811c908216806200015757607f821691505b602082108114156200017957634e487b7160e01b600052602260045260246000fd5b50919050565b61218b806200018f6000396000f3fe60806040526004361061013f5760003560e01c80638e264590116100b6578063c87b56dd1161006f578063c87b56dd14610371578063d1a88ae514610391578063e0391b09146103a6578063e985e9c5146103bb578063ef2d1746146103db578063fe97b82e146103f057600080fd5b80638e264590146102c957806395d89b41146102f65780639b1225c41461030b578063a22cb4651461031e578063b88d4fde1461033e578063c322579c1461035e57600080fd5b806323b872dd1161010857806323b872dd1461020857806342842e0e14610228578063629cb2e4146102485780636352211e1461026a57806368f1945f1461028a57806370a08231146102a957600080fd5b8062746ce31461014457806301ffc9a71461015957806306fdde031461018e578063081812fc146101b0578063095ea7b3146101e8575b600080fd5b610157610152366004611df3565b610403565b005b34801561016557600080fd5b50610179610174366004611d53565b610456565b60405190151581526020015b60405180910390f35b34801561019a57600080fd5b506101a3610481565b6040516101859190611f31565b3480156101bc57600080fd5b506101d06101cb366004611df3565b610513565b6040516001600160a01b039091168152602001610185565b3480156101f457600080fd5b50610157610203366004611d2a565b61053a565b34801561021457600080fd5b50610157610223366004611c4d565b610650565b34801561023457600080fd5b50610157610243366004611c4d565b610681565b34801561025457600080fd5b5061025d61069c565b6040516101859190611ee3565b34801561027657600080fd5b506101d0610285366004611df3565b6108df565b34801561029657600080fd5b50600a545b604051908152602001610185565b3480156102b557600080fd5b5061029b6102c4366004611c01565b61093f565b3480156102d557600080fd5b506102e96102e4366004611df3565b6109c5565b604051610185919061206b565b34801561030257600080fd5b506101a3610a2f565b610157610319366004611df3565b610a3e565b34801561032a57600080fd5b50610157610339366004611d01565b610b9f565b34801561034a57600080fd5b50610157610359366004611c88565b610bae565b61015761036c366004611df3565b610be0565b34801561037d57600080fd5b506101a361038c366004611df3565b610c4b565b34801561039d57600080fd5b506102e9610d5c565b3480156103b257600080fd5b5061025d610dd3565b3480156103c757600080fd5b506101796103d6366004611c1b565b610f24565b3480156103e757600080fd5b5061029b610f52565b61029b6103fe366004611d8b565b610f62565b600a54341461042d5760405162461bcd60e51b815260040161042490612028565b60405180910390fd5b610438333083610f9e565b6000908152600b60205260409020600401805460ff19166001179055565b60006001600160e01b03198216632483248360e11b148061047b575061047b82611102565b92915050565b606060008054610490906120bd565b80601f01602080910402602001604051908101604052809291908181526020018280546104bc906120bd565b80156105095780601f106104de57610100808354040283529160200191610509565b820191906000526020600020905b8154815290600101906020018083116104ec57829003601f168201915b5050505050905090565b600061051e82611152565b506000908152600460205260409020546001600160a01b031690565b6000610545826108df565b9050806001600160a01b0316836001600160a01b031614156105b35760405162461bcd60e51b815260206004820152602160248201527f4552433732313a20617070726f76616c20746f2063757272656e74206f776e656044820152603960f91b6064820152608401610424565b336001600160a01b03821614806105cf57506105cf8133610f24565b6106415760405162461bcd60e51b815260206004820152603d60248201527f4552433732313a20617070726f76652063616c6c6572206973206e6f7420746f60448201527f6b656e206f776e6572206f7220617070726f76656420666f7220616c6c0000006064820152608401610424565b61064b83836111b4565b505050565b61065a3382611222565b6106765760405162461bcd60e51b815260040161042490611f44565b61064b838383610f9e565b61064b83838360405180602001604052806000815250610bae565b606060006106a960075490565b905060008080805b848110156107415733600b60006106c9846001612079565b81526020810191909152604001600020600101546001600160a01b0316148061071c575033600b60006106fd846001612079565b81526020810191909152604001600020600201546001600160a01b0316145b1561072f5761072c600185612079565b93505b80610739816120f8565b9150506106b1565b5060008367ffffffffffffffff81111561076b57634e487b7160e01b600052604160045260246000fd5b6040519080825280602002602001820160405280156107a457816020015b610791611a98565b8152602001906001900390816107895790505b50905060005b858110156108d55733600b60006107c2846001612079565b81526020810191909152604001600020600101546001600160a01b03161480610815575033600b60006107f6846001612079565b81526020810191909152604001600020600201546001600160a01b0316145b156108c357610825816001612079565b6000818152600b6020908152604091829020825160a0810184528154815260018201546001600160a01b039081169382019390935260028201549092169282019290925260038201546060820152600482015460ff1615156080820152845192955090918490879081106108a957634e487b7160e01b600052603260045260246000fd5b60209081029190910101526108bf600186612079565b9450505b806108cd816120f8565b9150506107aa565b5095945050505050565b6000818152600260205260408120546001600160a01b03168061047b5760405162461bcd60e51b8152602060048201526018602482015277115490cdcc8c4e881a5b9d985b1a59081d1bdad95b88125160421b6044820152606401610424565b60006001600160a01b0382166109a95760405162461bcd60e51b815260206004820152602960248201527f4552433732313a2061646472657373207a65726f206973206e6f7420612076616044820152683634b21037bbb732b960b91b6064820152608401610424565b506001600160a01b031660009081526003602052604090205490565b6109cd611a98565b506000908152600b6020908152604091829020825160a0810184528154815260018201546001600160a01b03908116938201939093526002820154909216928201929092526003820154606082015260049091015460ff161515608082015290565b606060018054610490906120bd565b6000818152600b6020526040902060038101546002909101546001600160a01b0316348214610ad7576040805162461bcd60e51b81526020600482015260248101919091527f506c65617365207375626d6974207468652061736b696e67207072696365206960448201527f6e206f7264657220746f20636f6d706c657465207468652070757263686173656064820152608401610424565b6000838152600b6020526040902060048101805460ff1916905560020180546001600160a01b03191633179055610b12600880546001019055565b610b1d303385610f9e565b610b27308461053a565b600954600a546040516001600160a01b039092169181156108fc0291906000818181858888f19350505050158015610b63573d6000803e3d6000fd5b506040516001600160a01b038216903480156108fc02916000818181858888f19350505050158015610b99573d6000803e3d6000fd5b50505050565b610baa338383611280565b5050565b610bb83383611222565b610bd45760405162461bcd60e51b815260040161042490611f44565b610b998484848461134f565b6009546001600160a01b03163314610c465760405162461bcd60e51b815260206004820152602360248201527f4f6e6c79206f776e65722063616e20757064617465206c697374696e6720707260448201526269636560e81b6064820152608401610424565b600a55565b6060610c5682611152565b60008281526006602052604081208054610c6f906120bd565b80601f0160208091040260200160405190810160405280929190818152602001828054610c9b906120bd565b8015610ce85780601f10610cbd57610100808354040283529160200191610ce8565b820191906000526020600020905b815481529060010190602001808311610ccb57829003601f168201915b505050505090506000610d0660408051602081019091526000815290565b9050805160001415610d19575092915050565b815115610d4b578082604051602001610d33929190611e77565b60405160208183030381529060405292505050919050565b610d5484611382565b949350505050565b610d64611a98565b6000610d6f60075490565b6000908152600b6020908152604091829020825160a0810184528154815260018201546001600160a01b03908116938201939093526002820154909216928201929092526003820154606082015260049091015460ff161515608082015292915050565b60606000610de060075490565b905060008167ffffffffffffffff811115610e0b57634e487b7160e01b600052604160045260246000fd5b604051908082528060200260200182016040528015610e4457816020015b610e31611a98565b815260200190600190039081610e295790505b509050600080805b84811015610f1a57610e5f816001612079565b6000818152600b6020526040902060048101549193509060ff16151560011415610f07576040805160a0810182528254815260018301546001600160a01b0390811660208301526002840154169181019190915260038201546060820152600482015460ff16151560808201528551869086908110610eee57634e487b7160e01b600052603260045260246000fd5b6020908102919091010152610f04600185612079565b93505b5080610f12816120f8565b915050610e4c565b5091949350505050565b6001600160a01b03918216600090815260056020908152604080832093909416825291909152205460ff1690565b6000610f5d60075490565b905090565b6000610f72600780546001019055565b6000610f7d60075490565b9050610f8933826113f6565b610f938186611410565b610d548185856114e2565b826001600160a01b0316610fb1826108df565b6001600160a01b031614610fd75760405162461bcd60e51b815260040161042490611fe3565b6001600160a01b0382166110395760405162461bcd60e51b8152602060048201526024808201527f4552433732313a207472616e7366657220746f20746865207a65726f206164646044820152637265737360e01b6064820152608401610424565b826001600160a01b031661104c826108df565b6001600160a01b0316146110725760405162461bcd60e51b815260040161042490611fe3565b600081815260046020908152604080832080546001600160a01b03199081169091556001600160a01b0387811680865260038552838620805460001901905590871680865283862080546001019055868652600290945282852080549092168417909155905184937fddf252ad1be2c89b69c2b068fc378daa952ba7f163c4a11628f55a4df523b3ef91a4505050565b60006001600160e01b031982166380ac58cd60e01b148061113357506001600160e01b03198216635b5e139f60e01b145b8061047b57506301ffc9a760e01b6001600160e01b031983161461047b565b6000818152600260205260409020546001600160a01b03166111b15760405162461bcd60e51b8152602060048201526018602482015277115490cdcc8c4e881a5b9d985b1a59081d1bdad95b88125160421b6044820152606401610424565b50565b600081815260046020526040902080546001600160a01b0319166001600160a01b03841690811790915581906111e9826108df565b6001600160a01b03167f8c5be1e5ebec7d5bd14f71427d1e84f3dd0314c0f7b2291e5b200ac8c7c3b92560405160405180910390a45050565b60008061122e836108df565b9050806001600160a01b0316846001600160a01b0316148061125557506112558185610f24565b80610d545750836001600160a01b031661126e84610513565b6001600160a01b031614949350505050565b816001600160a01b0316836001600160a01b031614156112e25760405162461bcd60e51b815260206004820152601960248201527f4552433732313a20617070726f766520746f2063616c6c6572000000000000006044820152606401610424565b6001600160a01b03838116600081815260056020908152604080832094871680845294825291829020805460ff191686151590811790915591519182527f17307eab39ab6107e8899845ad3d59bd9653f200f220920489ca2b5937696c31910160405180910390a3505050565b61135a848484610f9e565b6113668484848461164a565b610b995760405162461bcd60e51b815260040161042490611f91565b606061138d82611152565b60006113a460408051602081019091526000815290565b905060008151116113c457604051806020016040528060008152506113ef565b806113ce84611757565b6040516020016113df929190611e77565b6040516020818303038152906040525b9392505050565b610baa828260405180602001604052806000815250611802565b6000828152600260205260409020546001600160a01b031661148b5760405162461bcd60e51b815260206004820152602e60248201527f45524337323155524953746f726167653a2055524920736574206f66206e6f6e60448201526d32bc34b9ba32b73a103a37b5b2b760911b6064820152608401610424565b600082815260066020908152604090912082516114aa92840190611ac6565b506040518281527ff8e1a15aba9398e019f0b49df1a4fde98ee17ae345cb5f6b5e2c27f5033e8ce79060200160405180910390a15050565b600a5434146115035760405162461bcd60e51b815260040161042490612028565b6000821161155e5760405162461bcd60e51b815260206004820152602260248201527f4d616b652073757265207468652070726963652069736e2774206e6567617469604482015261766560f01b6064820152608401610424565b6040805160a08101825284815230602080830182815233848601818152606086018981528815156080880190815260008c8152600b909652979094209551865591516001860180546001600160a01b03199081166001600160a01b039384161790915592516002870180549094169116179091559051600384015592516004909201805460ff1916921515929092179091556115fb919085610f9e565b60408051308152336020820152908101839052811515606082015283907f9339409317fd01fabff48b703019016f49159bacc801ae872d2ca637d226e4c09060800160405180910390a2505050565b60006001600160a01b0384163b1561174c57604051630a85bd0160e11b81526001600160a01b0385169063150b7a029061168e903390899088908890600401611ea6565b602060405180830381600087803b1580156116a857600080fd5b505af19250505080156116d8575060408051601f3d908101601f191682019092526116d591810190611d6f565b60015b611732573d808015611706576040519150601f19603f3d011682016040523d82523d6000602084013e61170b565b606091505b50805161172a5760405162461bcd60e51b815260040161042490611f91565b805181602001fd5b6001600160e01b031916630a85bd0160e11b149050610d54565b506001949350505050565b6060600061176483611835565b600101905060008167ffffffffffffffff81111561179257634e487b7160e01b600052604160045260246000fd5b6040519080825280601f01601f1916602001820160405280156117bc576020820181803683370190505b5090508181016020015b600019016f181899199a1a9b1b9c1cb0b131b232b360811b600a86061a8153600a85049450846117f5576117fa565b6117c6565b509392505050565b61180c838361190d565b611819600084848461164a565b61064b5760405162461bcd60e51b815260040161042490611f91565b60008072184f03e93ff9f4daa797ed6e38ed64bf6a1f0160401b83106118745772184f03e93ff9f4daa797ed6e38ed64bf6a1f0160401b830492506040015b6d04ee2d6d415b85acef810000000083106118a0576d04ee2d6d415b85acef8100000000830492506020015b662386f26fc1000083106118be57662386f26fc10000830492506010015b6305f5e10083106118d6576305f5e100830492506008015b61271083106118ea57612710830492506004015b606483106118fc576064830492506002015b600a831061047b5760010192915050565b6001600160a01b0382166119635760405162461bcd60e51b815260206004820181905260248201527f4552433732313a206d696e7420746f20746865207a65726f20616464726573736044820152606401610424565b6000818152600260205260409020546001600160a01b0316156119c85760405162461bcd60e51b815260206004820152601c60248201527f4552433732313a20746f6b656e20616c7265616479206d696e746564000000006044820152606401610424565b6000818152600260205260409020546001600160a01b031615611a2d5760405162461bcd60e51b815260206004820152601c60248201527f4552433732313a20746f6b656e20616c7265616479206d696e746564000000006044820152606401610424565b6001600160a01b038216600081815260036020908152604080832080546001019055848352600290915280822080546001600160a01b0319168417905551839291907fddf252ad1be2c89b69c2b068fc378daa952ba7f163c4a11628f55a4df523b3ef908290a45050565b6040805160a08101825260008082526020820181905291810182905260608101829052608081019190915290565b828054611ad2906120bd565b90600052602060002090601f016020900481019282611af45760008555611b3a565b82601f10611b0d57805160ff1916838001178555611b3a565b82800160010185558215611b3a579182015b82811115611b3a578251825591602001919060010190611b1f565b50611b46929150611b4a565b5090565b5b80821115611b465760008155600101611b4b565b600067ffffffffffffffff80841115611b7a57611b7a612129565b604051601f8501601f19908116603f01168101908282118183101715611ba257611ba2612129565b81604052809350858152868686011115611bbb57600080fd5b858560208301376000602087830101525050509392505050565b80356001600160a01b0381168114611bec57600080fd5b919050565b80358015158114611bec57600080fd5b600060208284031215611c12578081fd5b6113ef82611bd5565b60008060408385031215611c2d578081fd5b611c3683611bd5565b9150611c4460208401611bd5565b90509250929050565b600080600060608486031215611c61578081fd5b611c6a84611bd5565b9250611c7860208501611bd5565b9150604084013590509250925092565b60008060008060808587031215611c9d578081fd5b611ca685611bd5565b9350611cb460208601611bd5565b925060408501359150606085013567ffffffffffffffff811115611cd6578182fd5b8501601f81018713611ce6578182fd5b611cf587823560208401611b5f565b91505092959194509250565b60008060408385031215611d13578182fd5b611d1c83611bd5565b9150611c4460208401611bf1565b60008060408385031215611d3c578182fd5b611d4583611bd5565b946020939093013593505050565b600060208284031215611d64578081fd5b81356113ef8161213f565b600060208284031215611d80578081fd5b81516113ef8161213f565b600080600060608486031215611d9f578283fd5b833567ffffffffffffffff811115611db5578384fd5b8401601f81018613611dc5578384fd5b611dd486823560208401611b5f565b93505060208401359150611dea60408501611bf1565b90509250925092565b600060208284031215611e04578081fd5b5035919050565b60008151808452611e23816020860160208601612091565b601f01601f19169290920160200192915050565b805182526020808201516001600160a01b039081169184019190915260408083015190911690830152606080820151908301526080908101511515910152565b60008351611e89818460208801612091565b835190830190611e9d818360208801612091565b01949350505050565b6001600160a01b0385811682528416602082015260408101839052608060608201819052600090611ed990830184611e0b565b9695505050505050565b6020808252825182820181905260009190848201906040850190845b81811015611f2557611f12838551611e37565b9284019260a09290920191600101611eff565b50909695505050505050565b6020815260006113ef6020830184611e0b565b6020808252602d908201527f4552433732313a2063616c6c6572206973206e6f7420746f6b656e206f776e6560408201526c1c881bdc88185c1c1c9bdd9959609a1b606082015260800190565b60208082526032908201527f4552433732313a207472616e7366657220746f206e6f6e20455243373231526560408201527131b2b4bb32b91034b6b83632b6b2b73a32b960711b606082015260800190565b60208082526025908201527f4552433732313a207472616e736665722066726f6d20696e636f72726563742060408201526437bbb732b960d91b606082015260800190565b60208082526023908201527f486f706566756c6c792073656e64696e672074686520636f727265637420707260408201526269636560e81b606082015260800190565b60a0810161047b8284611e37565b6000821982111561208c5761208c612113565b500190565b60005b838110156120ac578181015183820152602001612094565b83811115610b995750506000910152565b600181811c908216806120d157607f821691505b602082108114156120f257634e487b7160e01b600052602260045260246000fd5b50919050565b600060001982141561210c5761210c612113565b5060010190565b634e487b7160e01b600052601160045260246000fd5b634e487b7160e01b600052604160045260246000fd5b6001600160e01b0319811681146111b157600080fdfea26469706673582212204ad1803f9e02e6726976f4e972c7af0e836a1dc363ab7da03a6625558d688ea864736f6c63430008040033",
  "linkReferences": {},
  "deployedLinkReferences": {}
}