{
  "_format": "hh-sol-artifact-1",
  "contractName": "MarketplaceCreditoCarbono",
  "sourceName": "contracts/MarketplaceCreditoCarbono.sol",
  "abi": [
    {
      "inputs": [],
      "stateMutability": "nonpayable",
      "type": "constructor"
    },
    {
      "anonymous": false,
      "inputs": [
        {
          "indexed": true,
          "internalType": "address",
          "name": "owner",
          "type": "address"
        },
        {
          "indexed": true,
          "internalType": "address",
          "name": "approved",
          "type": "address"
        },
        {
          "indexed": true,
          "internalType": "uint256",
          "name": "tokenId",
          "type": "uint256"
        }
      ],
      "name": "Approval",
      "type": "event"
    },
    {
      "anonymous": false,
      "inputs": [
        {
          "indexed": true,
          "internalType": "address",
          "name": "owner",
          "type": "address"
        },
        {
          "indexed": true,
          "internalType": "address",
          "name": "operator",
          "type": "address"
        },
        {
          "indexed": false,
          "internalType": "bool",
          "name": "approved",
          "type": "bool"
        }
      ],
      "name": "ApprovalForAll",
      "type": "event"
    },
    {
      "anonymous": false,
      "inputs": [
        {
          "indexed": false,
          "internalType": "uint256",
          "name": "_fromTokenId",
          "type": "uint256"
        },
        {
          "indexed": false,
          "internalType": "uint256",
          "name": "_toTokenId",
          "type": "uint256"
        }
      ],
      "name": "BatchMetadataUpdate",
      "type": "event"
    },
    {
      "anonymous": false,
      "inputs": [
        {
          "indexed": false,
          "internalType": "uint256",
          "name": "_tokenId",
          "type": "uint256"
        }
      ],
      "name": "MetadataUpdate",
      "type": "event"
    },
    {
      "anonymous": false,
      "inputs": [
        {
          "indexed": true,
          "internalType": "uint256",
          "name": "tokenId",
          "type": "uint256"
        },
        {
          "indexed": false,
          "internalType": "address",
          "name": "owner",
          "type": "address"
        },
        {
          "indexed": false,
          "internalType": "address",
          "name": "seller",
          "type": "address"
        },
        {
          "indexed": false,
          "internalType": "uint256",
          "name": "price",
          "type": "uint256"
        },
        {
          "indexed": false,
          "internalType": "bool",
          "name": "currentlyListed",
          "type": "bool"
        },
        {
          "indexed": false,
          "internalType": "uint256",
          "name": "codigoIdentificador",
          "type": "uint256"
        }
      ],
      "name": "TokenListedSuccess",
      "type": "event"
    },
    {
      "anonymous": false,
      "inputs": [
        {
          "indexed": true,
          "internalType": "address",
          "name": "from",
          "type": "address"
        },
        {
          "indexed": true,
          "internalType": "address",
          "name": "to",
          "type": "address"
        },
        {
          "indexed": true,
          "internalType": "uint256",
          "name": "tokenId",
          "type": "uint256"
        }
      ],
      "name": "Transfer",
      "type": "event"
    },
    {
      "inputs": [
        {
          "internalType": "address",
          "name": "to",
          "type": "address"
        },
        {
          "internalType": "uint256",
          "name": "tokenId",
          "type": "uint256"
        }
      ],
      "name": "approve",
      "outputs": [],
      "stateMutability": "nonpayable",
      "type": "function"
    },
    {
      "inputs": [
        {
          "internalType": "address",
          "name": "owner",
          "type": "address"
        }
      ],
      "name": "balanceOf",
      "outputs": [
        {
          "internalType": "uint256",
          "name": "",
          "type": "uint256"
        }
      ],
      "stateMutability": "view",
      "type": "function"
    },
    {
      "inputs": [
        {
          "internalType": "string",
          "name": "tokenURI",
          "type": "string"
        },
        {
          "internalType": "uint256",
          "name": "price",
          "type": "uint256"
        },
        {
          "internalType": "bool",
          "name": "currentlyListed",
          "type": "bool"
        },
        {
          "internalType": "uint256",
          "name": "codigoIdentificador",
          "type": "uint256"
        }
      ],
      "name": "createToken",
      "outputs": [
        {
          "internalType": "uint256",
          "name": "",
          "type": "uint256"
        }
      ],
      "stateMutability": "payable",
      "type": "function"
    },
    {
      "inputs": [
        {
          "internalType": "uint256",
          "name": "tokenId",
          "type": "uint256"
        }
      ],
      "name": "executeSale",
      "outputs": [],
      "stateMutability": "payable",
      "type": "function"
    },
    {
      "inputs": [
        {
          "internalType": "uint256",
          "name": "codigoDesejado",
          "type": "uint256"
        }
      ],
      "name": "getAllNFTs",
      "outputs": [
        {
          "components": [
            {
              "internalType": "uint256",
              "name": "tokenId",
              "type": "uint256"
            },
            {
              "internalType": "address payable",
              "name": "owner",
              "type": "address"
            },
            {
              "internalType": "address payable",
              "name": "seller",
              "type": "address"
            },
            {
              "internalType": "uint256",
              "name": "price",
              "type": "uint256"
            },
            {
              "internalType": "bool",
              "name": "currentlyListed",
              "type": "bool"
            },
            {
              "internalType": "uint256",
              "name": "codigoIdentificador",
              "type": "uint256"
            }
          ],
          "internalType": "struct MarketplaceCreditoCarbono.ListedToken[]",
          "name": "",
          "type": "tuple[]"
        }
      ],
      "stateMutability": "view",
      "type": "function"
    },
    {
      "inputs": [
        {
          "internalType": "uint256",
          "name": "tokenId",
          "type": "uint256"
        }
      ],
      "name": "getApproved",
      "outputs": [
        {
          "internalType": "address",
          "name": "",
          "type": "address"
        }
      ],
      "stateMutability": "view",
      "type": "function"
    },
    {
      "inputs": [],
      "name": "getCurrentToken",
      "outputs": [
        {
          "internalType": "uint256",
          "name": "",
          "type": "uint256"
        }
      ],
      "stateMutability": "view",
      "type": "function"
    },
    {
      "inputs": [],
      "name": "getLatestIdToListedToken",
      "outputs": [
        {
          "components": [
            {
              "internalType": "uint256",
              "name": "tokenId",
              "type": "uint256"
            },
            {
              "internalType": "address payable",
              "name": "owner",
              "type": "address"
            },
            {
              "internalType": "address payable",
              "name": "seller",
              "type": "address"
            },
            {
              "internalType": "uint256",
              "name": "price",
              "type": "uint256"
            },
            {
              "internalType": "bool",
              "name": "currentlyListed",
              "type": "bool"
            },
            {
              "internalType": "uint256",
              "name": "codigoIdentificador",
              "type": "uint256"
            }
          ],
          "internalType": "struct MarketplaceCreditoCarbono.ListedToken",
          "name": "",
          "type": "tuple"
        }
      ],
      "stateMutability": "view",
      "type": "function"
    },
    {
      "inputs": [],
      "name": "getListPrice",
      "outputs": [
        {
          "internalType": "uint256",
          "name": "",
          "type": "uint256"
        }
      ],
      "stateMutability": "view",
      "type": "function"
    },
    {
      "inputs": [
        {
          "internalType": "uint256",
          "name": "tokenId",
          "type": "uint256"
        }
      ],
      "name": "getListedTokenForId",
      "outputs": [
        {
          "components": [
            {
              "internalType": "uint256",
              "name": "tokenId",
              "type": "uint256"
            },
            {
              "internalType": "address payable",
              "name": "owner",
              "type": "address"
            },
            {
              "internalType": "address payable",
              "name": "seller",
              "type": "address"
            },
            {
              "internalType": "uint256",
              "name": "price",
              "type": "uint256"
            },
            {
              "internalType": "bool",
              "name": "currentlyListed",
              "type": "bool"
            },
            {
              "internalType": "uint256",
              "name": "codigoIdentificador",
              "type": "uint256"
            }
          ],
          "internalType": "struct MarketplaceCreditoCarbono.ListedToken",
          "name": "",
          "type": "tuple"
        }
      ],
      "stateMutability": "view",
      "type": "function"
    },
    {
      "inputs": [],
      "name": "getMyNFTs",
      "outputs": [
        {
          "components": [
            {
              "internalType": "uint256",
              "name": "tokenId",
              "type": "uint256"
            },
            {
              "internalType": "address payable",
              "name": "owner",
              "type": "address"
            },
            {
              "internalType": "address payable",
              "name": "seller",
              "type": "address"
            },
            {
              "internalType": "uint256",
              "name": "price",
              "type": "uint256"
            },
            {
              "internalType": "bool",
              "name": "currentlyListed",
              "type": "bool"
            },
            {
              "internalType": "uint256",
              "name": "codigoIdentificador",
              "type": "uint256"
            }
          ],
          "internalType": "struct MarketplaceCreditoCarbono.ListedToken[]",
          "name": "",
          "type": "tuple[]"
        }
      ],
      "stateMutability": "view",
      "type": "function"
    },
    {
      "inputs": [
        {
          "internalType": "address",
          "name": "owner",
          "type": "address"
        },
        {
          "internalType": "address",
          "name": "operator",
          "type": "address"
        }
      ],
      "name": "isApprovedForAll",
      "outputs": [
        {
          "internalType": "bool",
          "name": "",
          "type": "bool"
        }
      ],
      "stateMutability": "view",
      "type": "function"
    },
    {
      "inputs": [],
      "name": "name",
      "outputs": [
        {
          "internalType": "string",
          "name": "",
          "type": "string"
        }
      ],
      "stateMutability": "view",
      "type": "function"
    },
    {
      "inputs": [
        {
          "internalType": "uint256",
          "name": "tokenId",
          "type": "uint256"
        }
      ],
      "name": "ownerOf",
      "outputs": [
        {
          "internalType": "address",
          "name": "",
          "type": "address"
        }
      ],
      "stateMutability": "view",
      "type": "function"
    },
    {
      "inputs": [
        {
          "internalType": "uint256",
          "name": "tokenId",
          "type": "uint256"
        }
      ],
      "name": "resell",
      "outputs": [],
      "stateMutability": "payable",
      "type": "function"
    },
    {
      "inputs": [
        {
          "internalType": "address",
          "name": "from",
          "type": "address"
        },
        {
          "internalType": "address",
          "name": "to",
          "type": "address"
        },
        {
          "internalType": "uint256",
          "name": "tokenId",
          "type": "uint256"
        }
      ],
      "name": "safeTransferFrom",
      "outputs": [],
      "stateMutability": "nonpayable",
      "type": "function"
    },
    {
      "inputs": [
        {
          "internalType": "address",
          "name": "from",
          "type": "address"
        },
        {
          "internalType": "address",
          "name": "to",
          "type": "address"
        },
        {
          "internalType": "uint256",
          "name": "tokenId",
          "type": "uint256"
        },
        {
          "internalType": "bytes",
          "name": "data",
          "type": "bytes"
        }
      ],
      "name": "safeTransferFrom",
      "outputs": [],
      "stateMutability": "nonpayable",
      "type": "function"
    },
    {
      "inputs": [
        {
          "internalType": "address",
          "name": "operator",
          "type": "address"
        },
        {
          "internalType": "bool",
          "name": "approved",
          "type": "bool"
        }
      ],
      "name": "setApprovalForAll",
      "outputs": [],
      "stateMutability": "nonpayable",
      "type": "function"
    },
    {
      "inputs": [
        {
          "internalType": "bytes4",
          "name": "interfaceId",
          "type": "bytes4"
        }
      ],
      "name": "supportsInterface",
      "outputs": [
        {
          "internalType": "bool",
          "name": "",
          "type": "bool"
        }
      ],
      "stateMutability": "view",
      "type": "function"
    },
    {
      "inputs": [],
      "name": "symbol",
      "outputs": [
        {
          "internalType": "string",
          "name": "",
          "type": "string"
        }
      ],
      "stateMutability": "view",
      "type": "function"
    },
    {
      "inputs": [
        {
          "internalType": "uint256",
          "name": "tokenId",
          "type": "uint256"
        }
      ],
      "name": "tokenURI",
      "outputs": [
        {
          "internalType": "string",
          "name": "",
          "type": "string"
        }
      ],
      "stateMutability": "view",
      "type": "function"
    },
    {
      "inputs": [
        {
          "internalType": "address",
          "name": "from",
          "type": "address"
        },
        {
          "internalType": "address",
          "name": "to",
          "type": "address"
        },
        {
          "internalType": "uint256",
          "name": "tokenId",
          "type": "uint256"
        }
      ],
      "name": "transferFrom",
      "outputs": [],
      "stateMutability": "nonpayable",
      "type": "function"
    },
    {
      "inputs": [
        {
          "internalType": "uint256",
          "name": "_listPrice",
          "type": "uint256"
        }
      ],
      "name": "updateListPrice",
      "outputs": [],
      "stateMutability": "payable",
      "type": "function"
    }
  ],
  "bytecode": "0x60806040526509184e72a000600a553480156200001b57600080fd5b50604080518082018252601981527f4d61726b6574706c6163654372656469746f436172626f6e6f000000000000006020808301918252835180850190945260038452624d434360e81b9084015281519192916200007c91600091620000ad565b50805162000092906001906020840190620000ad565b5050600980546001600160a01b031916331790555062000190565b828054620000bb9062000153565b90600052602060002090601f016020900481019282620000df57600085556200012a565b82601f10620000fa57805160ff19168380011785556200012a565b828001600101855582156200012a579182015b828111156200012a5782518255916020019190600101906200010d565b50620001389291506200013c565b5090565b5b808211156200013857600081556001016200013d565b600181811c908216806200016857607f821691505b602082108114156200018a57634e487b7160e01b600052602260045260246000fd5b50919050565b61221580620001a06000396000f3fe60806040526004361061013f5760003560e01c806370a08231116100b6578063c322579c1161006f578063c322579c14610375578063c87b56dd14610388578063d1a88ae5146103a8578063d36c8c3d146103bd578063e985e9c5146103dd578063ef2d1746146103fd57600080fd5b806370a08231146102c05780638e264590146102e057806395d89b411461030d5780639b1225c414610322578063a22cb46514610335578063b88d4fde1461035557600080fd5b806323b872dd1161010857806323b872dd1461020857806342842e0e14610228578063615d1f0314610248578063629cb2e4146102695780636352211e1461028b57806368f1945f146102ab57600080fd5b8062746ce31461014457806301ffc9a71461015957806306fdde031461018e578063081812fc146101b0578063095ea7b3146101e8575b600080fd5b610157610152366004611e73565b610412565b005b34801561016557600080fd5b50610179610174366004611dcb565b610465565b60405190151581526020015b60405180910390f35b34801561019a57600080fd5b506101a3610490565b6040516101859190611fbb565b3480156101bc57600080fd5b506101d06101cb366004611e73565b610522565b6040516001600160a01b039091168152602001610185565b3480156101f457600080fd5b50610157610203366004611da2565b610549565b34801561021457600080fd5b50610157610223366004611cc5565b61065f565b34801561023457600080fd5b50610157610243366004611cc5565b610690565b61025b610256366004611e03565b6106ab565b604051908152602001610185565b34801561027557600080fd5b5061027e6106f3565b6040516101859190611f6d565b34801561029757600080fd5b506101d06102a6366004611e73565b610940565b3480156102b757600080fd5b50600a5461025b565b3480156102cc57600080fd5b5061025b6102db366004611c79565b6109a0565b3480156102ec57600080fd5b506103006102fb366004611e73565b610a26565b60405161018591906120f5565b34801561031957600080fd5b506101a3610a9a565b610157610330366004611e73565b610aa9565b34801561034157600080fd5b50610157610350366004611d79565b610c0a565b34801561036157600080fd5b50610157610370366004611d00565b610c19565b610157610383366004611e73565b610c4b565b34801561039457600080fd5b506101a36103a3366004611e73565b610cb6565b3480156103b457600080fd5b50610300610dbf565b3480156103c957600080fd5b5061027e6103d8366004611e73565b610e40565b3480156103e957600080fd5b506101796103f8366004611c93565b610fa8565b34801561040957600080fd5b5061025b610fd6565b600a54341461043c5760405162461bcd60e51b8152600401610433906120b2565b60405180910390fd5b610447333083610fe6565b6000908152600b60205260409020600401805460ff19166001179055565b60006001600160e01b03198216632483248360e11b148061048a575061048a8261114a565b92915050565b60606000805461049f90612147565b80601f01602080910402602001604051908101604052809291908181526020018280546104cb90612147565b80156105185780601f106104ed57610100808354040283529160200191610518565b820191906000526020600020905b8154815290600101906020018083116104fb57829003601f168201915b5050505050905090565b600061052d8261119a565b506000908152600460205260409020546001600160a01b031690565b600061055482610940565b9050806001600160a01b0316836001600160a01b031614156105c25760405162461bcd60e51b815260206004820152602160248201527f4552433732313a20617070726f76616c20746f2063757272656e74206f776e656044820152603960f91b6064820152608401610433565b336001600160a01b03821614806105de57506105de8133610fa8565b6106505760405162461bcd60e51b815260206004820152603d60248201527f4552433732313a20617070726f76652063616c6c6572206973206e6f7420746f60448201527f6b656e206f776e6572206f7220617070726f76656420666f7220616c6c0000006064820152608401610433565b61065a83836111fc565b505050565b610669338261126a565b6106855760405162461bcd60e51b815260040161043390611fce565b61065a838383610fe6565b61065a83838360405180602001604052806000815250610c19565b60006106bb600780546001019055565b60006106c660075490565b90506106d233826112c8565b6106dc81876112e2565b6106e8818686866113b4565b90505b949350505050565b6060600061070060075490565b905060008080805b848110156107985733600b6000610720846001612103565b81526020810191909152604001600020600101546001600160a01b03161480610773575033600b6000610754846001612103565b81526020810191909152604001600020600201546001600160a01b0316145b1561078657610783600185612103565b93505b8061079081612182565b915050610708565b5060008367ffffffffffffffff8111156107c257634e487b7160e01b600052604160045260246000fd5b6040519080825280602002602001820160405280156107fb57816020015b6107e8611af4565b8152602001906001900390816107e05790505b50905060005b858110156109365733600b6000610819846001612103565b81526020810191909152604001600020600101546001600160a01b0316148061086c575033600b600061084d846001612103565b81526020810191909152604001600020600201546001600160a01b0316145b156109245761087c816001612103565b6000818152600b6020908152604091829020825160c0810184528154815260018201546001600160a01b039081169382019390935260028201549092169282019290925260038201546060820152600482015460ff1615156080820152600582015460a08201528451929550909184908790811061090a57634e487b7160e01b600052603260045260246000fd5b6020908102919091010152610920600186612103565b9450505b8061092e81612182565b915050610801565b5095945050505050565b6000818152600260205260408120546001600160a01b03168061048a5760405162461bcd60e51b8152602060048201526018602482015277115490cdcc8c4e881a5b9d985b1a59081d1bdad95b88125160421b6044820152606401610433565b60006001600160a01b038216610a0a5760405162461bcd60e51b815260206004820152602960248201527f4552433732313a2061646472657373207a65726f206973206e6f7420612076616044820152683634b21037bbb732b960b91b6064820152608401610433565b506001600160a01b031660009081526003602052604090205490565b610a2e611af4565b506000908152600b6020908152604091829020825160c0810184528154815260018201546001600160a01b039081169382019390935260028201549092169282019290925260038201546060820152600482015460ff161515608082015260059091015460a082015290565b60606001805461049f90612147565b6000818152600b6020526040902060038101546002909101546001600160a01b0316348214610b42576040805162461bcd60e51b81526020600482015260248101919091527f506c65617365207375626d6974207468652061736b696e67207072696365206960448201527f6e206f7264657220746f20636f6d706c657465207468652070757263686173656064820152608401610433565b6000838152600b6020526040902060048101805460ff1916905560020180546001600160a01b03191633179055610b7d600880546001019055565b610b88303385610fe6565b610b923084610549565b600954600a546040516001600160a01b039092169181156108fc0291906000818181858888f19350505050158015610bce573d6000803e3d6000fd5b506040516001600160a01b038216903480156108fc02916000818181858888f19350505050158015610c04573d6000803e3d6000fd5b50505050565b610c15338383611533565b5050565b610c23338361126a565b610c3f5760405162461bcd60e51b815260040161043390611fce565b610c0484848484611602565b6009546001600160a01b03163314610cb15760405162461bcd60e51b815260206004820152602360248201527f4f6e6c79206f776e65722063616e20757064617465206c697374696e6720707260448201526269636560e81b6064820152608401610433565b600a55565b6060610cc18261119a565b60008281526006602052604081208054610cda90612147565b80601f0160208091040260200160405190810160405280929190818152602001828054610d0690612147565b8015610d535780601f10610d2857610100808354040283529160200191610d53565b820191906000526020600020905b815481529060010190602001808311610d3657829003601f168201915b505050505090506000610d7160408051602081019091526000815290565b9050805160001415610d84575092915050565b815115610db6578082604051602001610d9e929190611f01565b60405160208183030381529060405292505050919050565b6106eb84611635565b610dc7611af4565b6000610dd260075490565b6000908152600b6020908152604091829020825160c0810184528154815260018201546001600160a01b039081169382019390935260028201549092169282019290925260038201546060820152600482015460ff161515608082015260059091015460a082015292915050565b60606000610e4d60075490565b905060008167ffffffffffffffff811115610e7857634e487b7160e01b600052604160045260246000fd5b604051908082528060200260200182016040528015610eb157816020015b610e9e611af4565b815260200190600190039081610e965790505b509050600080805b84811015610f9d57610ecc816001612103565b6000818152600b60205260409020600581015491935090881415610f8a57600481015460ff16151560011415610f8a576040805160c0810182528254815260018301546001600160a01b0390811660208301526002840154169181019190915260038201546060820152600482015460ff1615156080820152600582015460a08201528551869086908110610f7157634e487b7160e01b600052603260045260246000fd5b6020908102919091010152610f87600185612103565b93505b5080610f9581612182565b915050610eb9565b509195945050505050565b6001600160a01b03918216600090815260056020908152604080832093909416825291909152205460ff1690565b6000610fe160075490565b905090565b826001600160a01b0316610ff982610940565b6001600160a01b03161461101f5760405162461bcd60e51b81526004016104339061206d565b6001600160a01b0382166110815760405162461bcd60e51b8152602060048201526024808201527f4552433732313a207472616e7366657220746f20746865207a65726f206164646044820152637265737360e01b6064820152608401610433565b826001600160a01b031661109482610940565b6001600160a01b0316146110ba5760405162461bcd60e51b81526004016104339061206d565b600081815260046020908152604080832080546001600160a01b03199081169091556001600160a01b0387811680865260038552838620805460001901905590871680865283862080546001019055868652600290945282852080549092168417909155905184937fddf252ad1be2c89b69c2b068fc378daa952ba7f163c4a11628f55a4df523b3ef91a4505050565b60006001600160e01b031982166380ac58cd60e01b148061117b57506001600160e01b03198216635b5e139f60e01b145b8061048a57506301ffc9a760e01b6001600160e01b031983161461048a565b6000818152600260205260409020546001600160a01b03166111f95760405162461bcd60e51b8152602060048201526018602482015277115490cdcc8c4e881a5b9d985b1a59081d1bdad95b88125160421b6044820152606401610433565b50565b600081815260046020526040902080546001600160a01b0319166001600160a01b038416908117909155819061123182610940565b6001600160a01b03167f8c5be1e5ebec7d5bd14f71427d1e84f3dd0314c0f7b2291e5b200ac8c7c3b92560405160405180910390a45050565b60008061127683610940565b9050806001600160a01b0316846001600160a01b0316148061129d575061129d8185610fa8565b806106eb5750836001600160a01b03166112b684610522565b6001600160a01b031614949350505050565b610c158282604051806020016040528060008152506116a9565b6000828152600260205260409020546001600160a01b031661135d5760405162461bcd60e51b815260206004820152602e60248201527f45524337323155524953746f726167653a2055524920736574206f66206e6f6e60448201526d32bc34b9ba32b73a103a37b5b2b760911b6064820152608401610433565b6000828152600660209081526040909120825161137c92840190611b3e565b506040518281527ff8e1a15aba9398e019f0b49df1a4fde98ee17ae345cb5f6b5e2c27f5033e8ce79060200160405180910390a15050565b600a5434146113d55760405162461bcd60e51b8152600401610433906120b2565b600083116114305760405162461bcd60e51b815260206004820152602260248201527f4d616b652073757265207468652070726963652069736e2774206e6567617469604482015261766560f01b6064820152608401610433565b6040805160c08101825285815230602080830182815233848601818152606086018a81528915156080880190815260a088018a815260008e8152600b909752989095209651875592516001870180546001600160a01b03199081166001600160a01b03938416179091559151600288018054909316911617905590516003850155905160048401805460ff191691151591909117905592516005909201919091556114dc919086610fe6565b6040805130815233602082015290810184905282151560608201526080810182905284907fffb090f82a5b4962b24948babc469436feb423efb5c6a5da4d25af0e6b85973f9060a00160405180910390a250505050565b816001600160a01b0316836001600160a01b031614156115955760405162461bcd60e51b815260206004820152601960248201527f4552433732313a20617070726f766520746f2063616c6c6572000000000000006044820152606401610433565b6001600160a01b03838116600081815260056020908152604080832094871680845294825291829020805460ff191686151590811790915591519182527f17307eab39ab6107e8899845ad3d59bd9653f200f220920489ca2b5937696c31910160405180910390a3505050565b61160d848484610fe6565b611619848484846116dc565b610c045760405162461bcd60e51b81526004016104339061201b565b60606116408261119a565b600061165760408051602081019091526000815290565b9050600081511161167757604051806020016040528060008152506116a2565b80611681846117e6565b604051602001611692929190611f01565b6040516020818303038152906040525b9392505050565b6116b38383611891565b6116c060008484846116dc565b61065a5760405162461bcd60e51b81526004016104339061201b565b60006001600160a01b0384163b156117de57604051630a85bd0160e11b81526001600160a01b0385169063150b7a0290611720903390899088908890600401611f30565b602060405180830381600087803b15801561173a57600080fd5b505af192505050801561176a575060408051601f3d908101601f1916820190925261176791810190611de7565b60015b6117c4573d808015611798576040519150601f19603f3d011682016040523d82523d6000602084013e61179d565b606091505b5080516117bc5760405162461bcd60e51b81526004016104339061201b565b805181602001fd5b6001600160e01b031916630a85bd0160e11b1490506106eb565b5060016106eb565b606060006117f383611a1c565b600101905060008167ffffffffffffffff81111561182157634e487b7160e01b600052604160045260246000fd5b6040519080825280601f01601f19166020018201604052801561184b576020820181803683370190505b5090508181016020015b600019016f181899199a1a9b1b9c1cb0b131b232b360811b600a86061a8153600a850494508461188457611889565b611855565b509392505050565b6001600160a01b0382166118e75760405162461bcd60e51b815260206004820181905260248201527f4552433732313a206d696e7420746f20746865207a65726f20616464726573736044820152606401610433565b6000818152600260205260409020546001600160a01b03161561194c5760405162461bcd60e51b815260206004820152601c60248201527f4552433732313a20746f6b656e20616c7265616479206d696e746564000000006044820152606401610433565b6000818152600260205260409020546001600160a01b0316156119b15760405162461bcd60e51b815260206004820152601c60248201527f4552433732313a20746f6b656e20616c7265616479206d696e746564000000006044820152606401610433565b6001600160a01b038216600081815260036020908152604080832080546001019055848352600290915280822080546001600160a01b0319168417905551839291907fddf252ad1be2c89b69c2b068fc378daa952ba7f163c4a11628f55a4df523b3ef908290a45050565b60008072184f03e93ff9f4daa797ed6e38ed64bf6a1f0160401b8310611a5b5772184f03e93ff9f4daa797ed6e38ed64bf6a1f0160401b830492506040015b6d04ee2d6d415b85acef81000000008310611a87576d04ee2d6d415b85acef8100000000830492506020015b662386f26fc100008310611aa557662386f26fc10000830492506010015b6305f5e1008310611abd576305f5e100830492506008015b6127108310611ad157612710830492506004015b60648310611ae3576064830492506002015b600a831061048a5760010192915050565b6040518060c001604052806000815260200160006001600160a01b0316815260200160006001600160a01b0316815260200160008152602001600015158152602001600081525090565b828054611b4a90612147565b90600052602060002090601f016020900481019282611b6c5760008555611bb2565b82601f10611b8557805160ff1916838001178555611bb2565b82800160010185558215611bb2579182015b82811115611bb2578251825591602001919060010190611b97565b50611bbe929150611bc2565b5090565b5b80821115611bbe5760008155600101611bc3565b600067ffffffffffffffff80841115611bf257611bf26121b3565b604051601f8501601f19908116603f01168101908282118183101715611c1a57611c1a6121b3565b81604052809350858152868686011115611c3357600080fd5b858560208301376000602087830101525050509392505050565b80356001600160a01b0381168114611c6457600080fd5b919050565b80358015158114611c6457600080fd5b600060208284031215611c8a578081fd5b6116a282611c4d565b60008060408385031215611ca5578081fd5b611cae83611c4d565b9150611cbc60208401611c4d565b90509250929050565b600080600060608486031215611cd9578081fd5b611ce284611c4d565b9250611cf060208501611c4d565b9150604084013590509250925092565b60008060008060808587031215611d15578081fd5b611d1e85611c4d565b9350611d2c60208601611c4d565b925060408501359150606085013567ffffffffffffffff811115611d4e578182fd5b8501601f81018713611d5e578182fd5b611d6d87823560208401611bd7565b91505092959194509250565b60008060408385031215611d8b578182fd5b611d9483611c4d565b9150611cbc60208401611c69565b60008060408385031215611db4578182fd5b611dbd83611c4d565b946020939093013593505050565b600060208284031215611ddc578081fd5b81356116a2816121c9565b600060208284031215611df8578081fd5b81516116a2816121c9565b60008060008060808587031215611e18578384fd5b843567ffffffffffffffff811115611e2e578485fd5b8501601f81018713611e3e578485fd5b611e4d87823560208401611bd7565b94505060208501359250611e6360408601611c69565b9396929550929360600135925050565b600060208284031215611e84578081fd5b5035919050565b60008151808452611ea381602086016020860161211b565b601f01601f19169290920160200192915050565b80518252602081015160018060a01b03808216602085015280604084015116604085015250506060810151606083015260808101511515608083015260a081015160a08301525050565b60008351611f1381846020880161211b565b835190830190611f2781836020880161211b565b01949350505050565b6001600160a01b0385811682528416602082015260408101839052608060608201819052600090611f6390830184611e8b565b9695505050505050565b6020808252825182820181905260009190848201906040850190845b81811015611faf57611f9c838551611eb7565b9284019260c09290920191600101611f89565b50909695505050505050565b6020815260006116a26020830184611e8b565b6020808252602d908201527f4552433732313a2063616c6c6572206973206e6f7420746f6b656e206f776e6560408201526c1c881bdc88185c1c1c9bdd9959609a1b606082015260800190565b60208082526032908201527f4552433732313a207472616e7366657220746f206e6f6e20455243373231526560408201527131b2b4bb32b91034b6b83632b6b2b73a32b960711b606082015260800190565b60208082526025908201527f4552433732313a207472616e736665722066726f6d20696e636f72726563742060408201526437bbb732b960d91b606082015260800190565b60208082526023908201527f486f706566756c6c792073656e64696e672074686520636f727265637420707260408201526269636560e81b606082015260800190565b60c0810161048a8284611eb7565b600082198211156121165761211661219d565b500190565b60005b8381101561213657818101518382015260200161211e565b83811115610c045750506000910152565b600181811c9082168061215b57607f821691505b6020821081141561217c57634e487b7160e01b600052602260045260246000fd5b50919050565b60006000198214156121965761219661219d565b5060010190565b634e487b7160e01b600052601160045260246000fd5b634e487b7160e01b600052604160045260246000fd5b6001600160e01b0319811681146111f957600080fdfea2646970667358221220d085b36b6af8020a8ff7bde64368bcd2fd61b31f9defffdb52e05b323872caf164736f6c63430008040033",
  "linkReferences": {},
  "deployedLinkReferences": {}
}