{
  "_format": "hh-sol-artifact-1",
  "contractName": "NFTMarketplace",
  "sourceName": "contracts/NFTMarketplace.sol",
  "abi": [
    {
      "inputs": [],
      "stateMutability": "nonpayable",
      "type": "constructor"
    },
    {
      "anonymous": false,
      "inputs": [
        {
          "indexed": true,
          "internalType": "address",
          "name": "owner",
          "type": "address"
        },
        {
          "indexed": true,
          "internalType": "address",
          "name": "approved",
          "type": "address"
        },
        {
          "indexed": true,
          "internalType": "uint256",
          "name": "tokenId",
          "type": "uint256"
        }
      ],
      "name": "Approval",
      "type": "event"
    },
    {
      "anonymous": false,
      "inputs": [
        {
          "indexed": true,
          "internalType": "address",
          "name": "owner",
          "type": "address"
        },
        {
          "indexed": true,
          "internalType": "address",
          "name": "operator",
          "type": "address"
        },
        {
          "indexed": false,
          "internalType": "bool",
          "name": "approved",
          "type": "bool"
        }
      ],
      "name": "ApprovalForAll",
      "type": "event"
    },
    {
      "anonymous": false,
      "inputs": [
        {
          "indexed": false,
          "internalType": "uint256",
          "name": "_fromTokenId",
          "type": "uint256"
        },
        {
          "indexed": false,
          "internalType": "uint256",
          "name": "_toTokenId",
          "type": "uint256"
        }
      ],
      "name": "BatchMetadataUpdate",
      "type": "event"
    },
    {
      "anonymous": false,
      "inputs": [
        {
          "indexed": false,
          "internalType": "uint256",
          "name": "_tokenId",
          "type": "uint256"
        }
      ],
      "name": "MetadataUpdate",
      "type": "event"
    },
    {
      "anonymous": false,
      "inputs": [
        {
          "indexed": true,
          "internalType": "uint256",
          "name": "tokenId",
          "type": "uint256"
        },
        {
          "indexed": false,
          "internalType": "address",
          "name": "owner",
          "type": "address"
        },
        {
          "indexed": false,
          "internalType": "address",
          "name": "seller",
          "type": "address"
        },
        {
          "indexed": false,
          "internalType": "uint256",
          "name": "price",
          "type": "uint256"
        },
        {
          "indexed": false,
          "internalType": "bool",
          "name": "currentlyListed",
          "type": "bool"
        }
      ],
      "name": "TokenListedSuccess",
      "type": "event"
    },
    {
      "anonymous": false,
      "inputs": [
        {
          "indexed": true,
          "internalType": "address",
          "name": "from",
          "type": "address"
        },
        {
          "indexed": true,
          "internalType": "address",
          "name": "to",
          "type": "address"
        },
        {
          "indexed": true,
          "internalType": "uint256",
          "name": "tokenId",
          "type": "uint256"
        }
      ],
      "name": "Transfer",
      "type": "event"
    },
    {
      "inputs": [
        {
          "internalType": "address",
          "name": "to",
          "type": "address"
        },
        {
          "internalType": "uint256",
          "name": "tokenId",
          "type": "uint256"
        }
      ],
      "name": "approve",
      "outputs": [],
      "stateMutability": "nonpayable",
      "type": "function"
    },
    {
      "inputs": [
        {
          "internalType": "address",
          "name": "owner",
          "type": "address"
        }
      ],
      "name": "balanceOf",
      "outputs": [
        {
          "internalType": "uint256",
          "name": "",
          "type": "uint256"
        }
      ],
      "stateMutability": "view",
      "type": "function"
    },
    {
      "inputs": [
        {
          "internalType": "string",
          "name": "tokenURI",
          "type": "string"
        },
        {
          "internalType": "uint256",
          "name": "price",
          "type": "uint256"
        }
      ],
      "name": "createToken",
      "outputs": [
        {
          "internalType": "uint256",
          "name": "",
          "type": "uint256"
        }
      ],
      "stateMutability": "payable",
      "type": "function"
    },
    {
      "inputs": [
        {
          "internalType": "uint256",
          "name": "tokenId",
          "type": "uint256"
        }
      ],
      "name": "executeSale",
      "outputs": [],
      "stateMutability": "payable",
      "type": "function"
    },
    {
      "inputs": [],
      "name": "getAllNFTs",
      "outputs": [
        {
          "components": [
            {
              "internalType": "uint256",
              "name": "tokenId",
              "type": "uint256"
            },
            {
              "internalType": "address payable",
              "name": "owner",
              "type": "address"
            },
            {
              "internalType": "address payable",
              "name": "seller",
              "type": "address"
            },
            {
              "internalType": "uint256",
              "name": "price",
              "type": "uint256"
            },
            {
              "internalType": "bool",
              "name": "currentlyListed",
              "type": "bool"
            }
          ],
          "internalType": "struct NFTMarketplace.ListedToken[]",
          "name": "",
          "type": "tuple[]"
        }
      ],
      "stateMutability": "view",
      "type": "function"
    },
    {
      "inputs": [
        {
          "internalType": "uint256",
          "name": "tokenId",
          "type": "uint256"
        }
      ],
      "name": "getApproved",
      "outputs": [
        {
          "internalType": "address",
          "name": "",
          "type": "address"
        }
      ],
      "stateMutability": "view",
      "type": "function"
    },
    {
      "inputs": [],
      "name": "getCurrentToken",
      "outputs": [
        {
          "internalType": "uint256",
          "name": "",
          "type": "uint256"
        }
      ],
      "stateMutability": "view",
      "type": "function"
    },
    {
      "inputs": [],
      "name": "getLatestIdToListedToken",
      "outputs": [
        {
          "components": [
            {
              "internalType": "uint256",
              "name": "tokenId",
              "type": "uint256"
            },
            {
              "internalType": "address payable",
              "name": "owner",
              "type": "address"
            },
            {
              "internalType": "address payable",
              "name": "seller",
              "type": "address"
            },
            {
              "internalType": "uint256",
              "name": "price",
              "type": "uint256"
            },
            {
              "internalType": "bool",
              "name": "currentlyListed",
              "type": "bool"
            }
          ],
          "internalType": "struct NFTMarketplace.ListedToken",
          "name": "",
          "type": "tuple"
        }
      ],
      "stateMutability": "view",
      "type": "function"
    },
    {
      "inputs": [],
      "name": "getListPrice",
      "outputs": [
        {
          "internalType": "uint256",
          "name": "",
          "type": "uint256"
        }
      ],
      "stateMutability": "view",
      "type": "function"
    },
    {
      "inputs": [
        {
          "internalType": "uint256",
          "name": "tokenId",
          "type": "uint256"
        }
      ],
      "name": "getListedTokenForId",
      "outputs": [
        {
          "components": [
            {
              "internalType": "uint256",
              "name": "tokenId",
              "type": "uint256"
            },
            {
              "internalType": "address payable",
              "name": "owner",
              "type": "address"
            },
            {
              "internalType": "address payable",
              "name": "seller",
              "type": "address"
            },
            {
              "internalType": "uint256",
              "name": "price",
              "type": "uint256"
            },
            {
              "internalType": "bool",
              "name": "currentlyListed",
              "type": "bool"
            }
          ],
          "internalType": "struct NFTMarketplace.ListedToken",
          "name": "",
          "type": "tuple"
        }
      ],
      "stateMutability": "view",
      "type": "function"
    },
    {
      "inputs": [],
      "name": "getMyNFTs",
      "outputs": [
        {
          "components": [
            {
              "internalType": "uint256",
              "name": "tokenId",
              "type": "uint256"
            },
            {
              "internalType": "address payable",
              "name": "owner",
              "type": "address"
            },
            {
              "internalType": "address payable",
              "name": "seller",
              "type": "address"
            },
            {
              "internalType": "uint256",
              "name": "price",
              "type": "uint256"
            },
            {
              "internalType": "bool",
              "name": "currentlyListed",
              "type": "bool"
            }
          ],
          "internalType": "struct NFTMarketplace.ListedToken[]",
          "name": "",
          "type": "tuple[]"
        }
      ],
      "stateMutability": "view",
      "type": "function"
    },
    {
      "inputs": [
        {
          "internalType": "address",
          "name": "owner",
          "type": "address"
        },
        {
          "internalType": "address",
          "name": "operator",
          "type": "address"
        }
      ],
      "name": "isApprovedForAll",
      "outputs": [
        {
          "internalType": "bool",
          "name": "",
          "type": "bool"
        }
      ],
      "stateMutability": "view",
      "type": "function"
    },
    {
      "inputs": [],
      "name": "name",
      "outputs": [
        {
          "internalType": "string",
          "name": "",
          "type": "string"
        }
      ],
      "stateMutability": "view",
      "type": "function"
    },
    {
      "inputs": [
        {
          "internalType": "uint256",
          "name": "tokenId",
          "type": "uint256"
        }
      ],
      "name": "ownerOf",
      "outputs": [
        {
          "internalType": "address",
          "name": "",
          "type": "address"
        }
      ],
      "stateMutability": "view",
      "type": "function"
    },
    {
      "inputs": [
        {
          "internalType": "uint256",
          "name": "tokenId",
          "type": "uint256"
        }
      ],
      "name": "resell",
      "outputs": [],
      "stateMutability": "payable",
      "type": "function"
    },
    {
      "inputs": [
        {
          "internalType": "address",
          "name": "from",
          "type": "address"
        },
        {
          "internalType": "address",
          "name": "to",
          "type": "address"
        },
        {
          "internalType": "uint256",
          "name": "tokenId",
          "type": "uint256"
        }
      ],
      "name": "safeTransferFrom",
      "outputs": [],
      "stateMutability": "nonpayable",
      "type": "function"
    },
    {
      "inputs": [
        {
          "internalType": "address",
          "name": "from",
          "type": "address"
        },
        {
          "internalType": "address",
          "name": "to",
          "type": "address"
        },
        {
          "internalType": "uint256",
          "name": "tokenId",
          "type": "uint256"
        },
        {
          "internalType": "bytes",
          "name": "data",
          "type": "bytes"
        }
      ],
      "name": "safeTransferFrom",
      "outputs": [],
      "stateMutability": "nonpayable",
      "type": "function"
    },
    {
      "inputs": [
        {
          "internalType": "address",
          "name": "operator",
          "type": "address"
        },
        {
          "internalType": "bool",
          "name": "approved",
          "type": "bool"
        }
      ],
      "name": "setApprovalForAll",
      "outputs": [],
      "stateMutability": "nonpayable",
      "type": "function"
    },
    {
      "inputs": [
        {
          "internalType": "bytes4",
          "name": "interfaceId",
          "type": "bytes4"
        }
      ],
      "name": "supportsInterface",
      "outputs": [
        {
          "internalType": "bool",
          "name": "",
          "type": "bool"
        }
      ],
      "stateMutability": "view",
      "type": "function"
    },
    {
      "inputs": [],
      "name": "symbol",
      "outputs": [
        {
          "internalType": "string",
          "name": "",
          "type": "string"
        }
      ],
      "stateMutability": "view",
      "type": "function"
    },
    {
      "inputs": [
        {
          "internalType": "uint256",
          "name": "tokenId",
          "type": "uint256"
        }
      ],
      "name": "tokenURI",
      "outputs": [
        {
          "internalType": "string",
          "name": "",
          "type": "string"
        }
      ],
      "stateMutability": "view",
      "type": "function"
    },
    {
      "inputs": [
        {
          "internalType": "address",
          "name": "from",
          "type": "address"
        },
        {
          "internalType": "address",
          "name": "to",
          "type": "address"
        },
        {
          "internalType": "uint256",
          "name": "tokenId",
          "type": "uint256"
        }
      ],
      "name": "transferFrom",
      "outputs": [],
      "stateMutability": "nonpayable",
      "type": "function"
    },
    {
      "inputs": [
        {
          "internalType": "uint256",
          "name": "_listPrice",
          "type": "uint256"
        }
      ],
      "name": "updateListPrice",
      "outputs": [],
      "stateMutability": "payable",
      "type": "function"
    }
  ],
  "bytecode": "0x6080604052662386f26fc10000600a553480156200001c57600080fd5b50604080518082018252600e81526d4e46544d61726b6574706c61636560901b6020808301918252835180850190945260048452634e46544d60e01b9084015281519192916200006f91600091620000a0565b50805162000085906001906020840190620000a0565b5050600980546001600160a01b031916331790555062000183565b828054620000ae9062000146565b90600052602060002090601f016020900481019282620000d257600085556200011d565b82601f10620000ed57805160ff19168380011785556200011d565b828001600101855582156200011d579182015b828111156200011d57825182559160200191906001019062000100565b506200012b9291506200012f565b5090565b5b808211156200012b576000815560010162000130565b600181811c908216806200015b57607f821691505b602082108114156200017d57634e487b7160e01b600052602260045260246000fd5b50919050565b61219c80620001936000396000f3fe60806040526004361061013f5760003560e01c806372b3b620116100b6578063c322579c1161006f578063c322579c14610371578063c87b56dd14610384578063d1a88ae5146103a4578063e0391b09146103b9578063e985e9c5146103ce578063ef2d17461461041757600080fd5b806372b3b620146102c95780638e264590146102dc57806395d89b41146103095780639b1225c41461031e578063a22cb46514610331578063b88d4fde1461035157600080fd5b806323b872dd1161010857806323b872dd1461020857806342842e0e14610228578063629cb2e4146102485780636352211e1461026a57806368f1945f1461028a57806370a08231146102a957600080fd5b8062746ce31461014457806301ffc9a71461015957806306fdde031461018e578063081812fc146101b0578063095ea7b3146101e8575b600080fd5b610157610152366004611e04565b61042c565b005b34801561016557600080fd5b50610179610174366004611d76565b61047f565b60405190151581526020015b60405180910390f35b34801561019a57600080fd5b506101a36104aa565b6040516101859190611f42565b3480156101bc57600080fd5b506101d06101cb366004611e04565b61053c565b6040516001600160a01b039091168152602001610185565b3480156101f457600080fd5b50610157610203366004611d4d565b610563565b34801561021457600080fd5b50610157610223366004611c5f565b610679565b34801561023457600080fd5b50610157610243366004611c5f565b6106aa565b34801561025457600080fd5b5061025d6106c5565b6040516101859190611ef4565b34801561027657600080fd5b506101d0610285366004611e04565b610908565b34801561029657600080fd5b50600a545b604051908152602001610185565b3480156102b557600080fd5b5061029b6102c4366004611c13565b610968565b61029b6102d7366004611dae565b6109ee565b3480156102e857600080fd5b506102fc6102f7366004611e04565b610a32565b604051610185919061207c565b34801561031557600080fd5b506101a3610a9c565b61015761032c366004611e04565b610aab565b34801561033d57600080fd5b5061015761034c366004611d13565b610c0c565b34801561035d57600080fd5b5061015761036c366004611c9a565b610c1b565b61015761037f366004611e04565b610c4d565b34801561039057600080fd5b506101a361039f366004611e04565b610cb8565b3480156103b057600080fd5b506102fc610dc9565b3480156103c557600080fd5b5061025d610e40565b3480156103da57600080fd5b506101796103e9366004611c2d565b6001600160a01b03918216600090815260056020908152604080832093909416825291909152205460ff1690565b34801561042357600080fd5b5061029b610f91565b600a5434146104565760405162461bcd60e51b815260040161044d90612039565b60405180910390fd5b610461333083610fa1565b6000908152600b60205260409020600401805460ff19166001179055565b60006001600160e01b03198216632483248360e11b14806104a457506104a482611105565b92915050565b6060600080546104b9906120ce565b80601f01602080910402602001604051908101604052809291908181526020018280546104e5906120ce565b80156105325780601f1061050757610100808354040283529160200191610532565b820191906000526020600020905b81548152906001019060200180831161051557829003601f168201915b5050505050905090565b600061054782611155565b506000908152600460205260409020546001600160a01b031690565b600061056e82610908565b9050806001600160a01b0316836001600160a01b031614156105dc5760405162461bcd60e51b815260206004820152602160248201527f4552433732313a20617070726f76616c20746f2063757272656e74206f776e656044820152603960f91b606482015260840161044d565b336001600160a01b03821614806105f857506105f881336103e9565b61066a5760405162461bcd60e51b815260206004820152603d60248201527f4552433732313a20617070726f76652063616c6c6572206973206e6f7420746f60448201527f6b656e206f776e6572206f7220617070726f76656420666f7220616c6c000000606482015260840161044d565b61067483836111b7565b505050565b6106833382611225565b61069f5760405162461bcd60e51b815260040161044d90611f55565b610674838383610fa1565b61067483838360405180602001604052806000815250610c1b565b606060006106d260075490565b905060008080805b8481101561076a5733600b60006106f284600161208a565b81526020810191909152604001600020600101546001600160a01b03161480610745575033600b600061072684600161208a565b81526020810191909152604001600020600201546001600160a01b0316145b156107585761075560018561208a565b93505b8061076281612109565b9150506106da565b5060008367ffffffffffffffff81111561079457634e487b7160e01b600052604160045260246000fd5b6040519080825280602002602001820160405280156107cd57816020015b6107ba611aba565b8152602001906001900390816107b25790505b50905060005b858110156108fe5733600b60006107eb84600161208a565b81526020810191909152604001600020600101546001600160a01b0316148061083e575033600b600061081f84600161208a565b81526020810191909152604001600020600201546001600160a01b0316145b156108ec5761084e81600161208a565b6000818152600b6020908152604091829020825160a0810184528154815260018201546001600160a01b039081169382019390935260028201549092169282019290925260038201546060820152600482015460ff1615156080820152845192955090918490879081106108d257634e487b7160e01b600052603260045260246000fd5b60209081029190910101526108e860018661208a565b9450505b806108f681612109565b9150506107d3565b5095945050505050565b6000818152600260205260408120546001600160a01b0316806104a45760405162461bcd60e51b8152602060048201526018602482015277115490cdcc8c4e881a5b9d985b1a59081d1bdad95b88125160421b604482015260640161044d565b60006001600160a01b0382166109d25760405162461bcd60e51b815260206004820152602960248201527f4552433732313a2061646472657373207a65726f206973206e6f7420612076616044820152683634b21037bbb732b960b91b606482015260840161044d565b506001600160a01b031660009081526003602052604090205490565b60006109fe600780546001019055565b6000610a0960075490565b9050610a1533826112a3565b610a1f81856112bd565b610a2b8184600161138f565b9392505050565b610a3a611aba565b506000908152600b6020908152604091829020825160a0810184528154815260018201546001600160a01b03908116938201939093526002820154909216928201929092526003820154606082015260049091015460ff161515608082015290565b6060600180546104b9906120ce565b6000818152600b6020526040902060038101546002909101546001600160a01b0316348214610b44576040805162461bcd60e51b81526020600482015260248101919091527f506c65617365207375626d6974207468652061736b696e67207072696365206960448201527f6e206f7264657220746f20636f6d706c65746520746865207075726368617365606482015260840161044d565b6000838152600b6020526040902060048101805460ff1916905560020180546001600160a01b03191633179055610b7f600880546001019055565b610b8a303385610fa1565b610b943084610563565b600954600a546040516001600160a01b039092169181156108fc0291906000818181858888f19350505050158015610bd0573d6000803e3d6000fd5b506040516001600160a01b038216903480156108fc02916000818181858888f19350505050158015610c06573d6000803e3d6000fd5b50505050565b610c173383836114f7565b5050565b610c253383611225565b610c415760405162461bcd60e51b815260040161044d90611f55565b610c06848484846115c6565b6009546001600160a01b03163314610cb35760405162461bcd60e51b815260206004820152602360248201527f4f6e6c79206f776e65722063616e20757064617465206c697374696e6720707260448201526269636560e81b606482015260840161044d565b600a55565b6060610cc382611155565b60008281526006602052604081208054610cdc906120ce565b80601f0160208091040260200160405190810160405280929190818152602001828054610d08906120ce565b8015610d555780601f10610d2a57610100808354040283529160200191610d55565b820191906000526020600020905b815481529060010190602001808311610d3857829003601f168201915b505050505090506000610d7360408051602081019091526000815290565b9050805160001415610d86575092915050565b815115610db8578082604051602001610da0929190611e88565b60405160208183030381529060405292505050919050565b610dc1846115f9565b949350505050565b610dd1611aba565b6000610ddc60075490565b6000908152600b6020908152604091829020825160a0810184528154815260018201546001600160a01b03908116938201939093526002820154909216928201929092526003820154606082015260049091015460ff161515608082015292915050565b60606000610e4d60075490565b905060008167ffffffffffffffff811115610e7857634e487b7160e01b600052604160045260246000fd5b604051908082528060200260200182016040528015610eb157816020015b610e9e611aba565b815260200190600190039081610e965790505b509050600080805b84811015610f8757610ecc81600161208a565b6000818152600b6020526040902060048101549193509060ff16151560011415610f74576040805160a0810182528254815260018301546001600160a01b0390811660208301526002840154169181019190915260038201546060820152600482015460ff16151560808201528551869086908110610f5b57634e487b7160e01b600052603260045260246000fd5b6020908102919091010152610f7160018561208a565b93505b5080610f7f81612109565b915050610eb9565b5091949350505050565b6000610f9c60075490565b905090565b826001600160a01b0316610fb482610908565b6001600160a01b031614610fda5760405162461bcd60e51b815260040161044d90611ff4565b6001600160a01b03821661103c5760405162461bcd60e51b8152602060048201526024808201527f4552433732313a207472616e7366657220746f20746865207a65726f206164646044820152637265737360e01b606482015260840161044d565b826001600160a01b031661104f82610908565b6001600160a01b0316146110755760405162461bcd60e51b815260040161044d90611ff4565b600081815260046020908152604080832080546001600160a01b03199081169091556001600160a01b0387811680865260038552838620805460001901905590871680865283862080546001019055868652600290945282852080549092168417909155905184937fddf252ad1be2c89b69c2b068fc378daa952ba7f163c4a11628f55a4df523b3ef91a4505050565b60006001600160e01b031982166380ac58cd60e01b148061113657506001600160e01b03198216635b5e139f60e01b145b806104a457506301ffc9a760e01b6001600160e01b03198316146104a4565b6000818152600260205260409020546001600160a01b03166111b45760405162461bcd60e51b8152602060048201526018602482015277115490cdcc8c4e881a5b9d985b1a59081d1bdad95b88125160421b604482015260640161044d565b50565b600081815260046020526040902080546001600160a01b0319166001600160a01b03841690811790915581906111ec82610908565b6001600160a01b03167f8c5be1e5ebec7d5bd14f71427d1e84f3dd0314c0f7b2291e5b200ac8c7c3b92560405160405180910390a45050565b60008061123183610908565b9050806001600160a01b0316846001600160a01b0316148061127857506001600160a01b0380821660009081526005602090815260408083209388168352929052205460ff165b80610dc15750836001600160a01b03166112918461053c565b6001600160a01b031614949350505050565b610c1782826040518060200160405280600081525061166c565b6000828152600260205260409020546001600160a01b03166113385760405162461bcd60e51b815260206004820152602e60248201527f45524337323155524953746f726167653a2055524920736574206f66206e6f6e60448201526d32bc34b9ba32b73a103a37b5b2b760911b606482015260840161044d565b6000828152600660209081526040909120825161135792840190611ae8565b506040518281527ff8e1a15aba9398e019f0b49df1a4fde98ee17ae345cb5f6b5e2c27f5033e8ce79060200160405180910390a15050565b600a5434146113b05760405162461bcd60e51b815260040161044d90612039565b6000821161140b5760405162461bcd60e51b815260206004820152602260248201527f4d616b652073757265207468652070726963652069736e2774206e6567617469604482015261766560f01b606482015260840161044d565b6040805160a08101825284815230602080830182815233848601818152606086018981528815156080880190815260008c8152600b909652979094209551865591516001860180546001600160a01b03199081166001600160a01b039384161790915592516002870180549094169116179091559051600384015592516004909201805460ff1916921515929092179091556114a8919085610fa1565b60408051308152336020820152908101839052811515606082015283907f9339409317fd01fabff48b703019016f49159bacc801ae872d2ca637d226e4c09060800160405180910390a2505050565b816001600160a01b0316836001600160a01b031614156115595760405162461bcd60e51b815260206004820152601960248201527f4552433732313a20617070726f766520746f2063616c6c657200000000000000604482015260640161044d565b6001600160a01b03838116600081815260056020908152604080832094871680845294825291829020805460ff191686151590811790915591519182527f17307eab39ab6107e8899845ad3d59bd9653f200f220920489ca2b5937696c31910160405180910390a3505050565b6115d1848484610fa1565b6115dd8484848461169f565b610c065760405162461bcd60e51b815260040161044d90611fa2565b606061160482611155565b600061161b60408051602081019091526000815290565b9050600081511161163b5760405180602001604052806000815250610a2b565b80611645846117ac565b604051602001611656929190611e88565b6040516020818303038152906040529392505050565b6116768383611857565b611683600084848461169f565b6106745760405162461bcd60e51b815260040161044d90611fa2565b60006001600160a01b0384163b156117a157604051630a85bd0160e11b81526001600160a01b0385169063150b7a02906116e3903390899088908890600401611eb7565b602060405180830381600087803b1580156116fd57600080fd5b505af192505050801561172d575060408051601f3d908101601f1916820190925261172a91810190611d92565b60015b611787573d80801561175b576040519150601f19603f3d011682016040523d82523d6000602084013e611760565b606091505b50805161177f5760405162461bcd60e51b815260040161044d90611fa2565b805181602001fd5b6001600160e01b031916630a85bd0160e11b149050610dc1565b506001949350505050565b606060006117b9836119e2565b600101905060008167ffffffffffffffff8111156117e757634e487b7160e01b600052604160045260246000fd5b6040519080825280601f01601f191660200182016040528015611811576020820181803683370190505b5090508181016020015b600019016f181899199a1a9b1b9c1cb0b131b232b360811b600a86061a8153600a850494508461184a5761184f565b61181b565b509392505050565b6001600160a01b0382166118ad5760405162461bcd60e51b815260206004820181905260248201527f4552433732313a206d696e7420746f20746865207a65726f2061646472657373604482015260640161044d565b6000818152600260205260409020546001600160a01b0316156119125760405162461bcd60e51b815260206004820152601c60248201527f4552433732313a20746f6b656e20616c7265616479206d696e74656400000000604482015260640161044d565b6000818152600260205260409020546001600160a01b0316156119775760405162461bcd60e51b815260206004820152601c60248201527f4552433732313a20746f6b656e20616c7265616479206d696e74656400000000604482015260640161044d565b6001600160a01b038216600081815260036020908152604080832080546001019055848352600290915280822080546001600160a01b0319168417905551839291907fddf252ad1be2c89b69c2b068fc378daa952ba7f163c4a11628f55a4df523b3ef908290a45050565b60008072184f03e93ff9f4daa797ed6e38ed64bf6a1f0160401b8310611a215772184f03e93ff9f4daa797ed6e38ed64bf6a1f0160401b830492506040015b6d04ee2d6d415b85acef81000000008310611a4d576d04ee2d6d415b85acef8100000000830492506020015b662386f26fc100008310611a6b57662386f26fc10000830492506010015b6305f5e1008310611a83576305f5e100830492506008015b6127108310611a9757612710830492506004015b60648310611aa9576064830492506002015b600a83106104a45760010192915050565b6040805160a08101825260008082526020820181905291810182905260608101829052608081019190915290565b828054611af4906120ce565b90600052602060002090601f016020900481019282611b165760008555611b5c565b82601f10611b2f57805160ff1916838001178555611b5c565b82800160010185558215611b5c579182015b82811115611b5c578251825591602001919060010190611b41565b50611b68929150611b6c565b5090565b5b80821115611b685760008155600101611b6d565b600067ffffffffffffffff80841115611b9c57611b9c61213a565b604051601f8501601f19908116603f01168101908282118183101715611bc457611bc461213a565b81604052809350858152868686011115611bdd57600080fd5b858560208301376000602087830101525050509392505050565b80356001600160a01b0381168114611c0e57600080fd5b919050565b600060208284031215611c24578081fd5b610a2b82611bf7565b60008060408385031215611c3f578081fd5b611c4883611bf7565b9150611c5660208401611bf7565b90509250929050565b600080600060608486031215611c73578081fd5b611c7c84611bf7565b9250611c8a60208501611bf7565b9150604084013590509250925092565b60008060008060808587031215611caf578081fd5b611cb885611bf7565b9350611cc660208601611bf7565b925060408501359150606085013567ffffffffffffffff811115611ce8578182fd5b8501601f81018713611cf8578182fd5b611d0787823560208401611b81565b91505092959194509250565b60008060408385031215611d25578182fd5b611d2e83611bf7565b915060208301358015158114611d42578182fd5b809150509250929050565b60008060408385031215611d5f578182fd5b611d6883611bf7565b946020939093013593505050565b600060208284031215611d87578081fd5b8135610a2b81612150565b600060208284031215611da3578081fd5b8151610a2b81612150565b60008060408385031215611dc0578182fd5b823567ffffffffffffffff811115611dd6578283fd5b8301601f81018513611de6578283fd5b611df585823560208401611b81565b95602094909401359450505050565b600060208284031215611e15578081fd5b5035919050565b60008151808452611e348160208601602086016120a2565b601f01601f19169290920160200192915050565b805182526020808201516001600160a01b039081169184019190915260408083015190911690830152606080820151908301526080908101511515910152565b60008351611e9a8184602088016120a2565b835190830190611eae8183602088016120a2565b01949350505050565b6001600160a01b0385811682528416602082015260408101839052608060608201819052600090611eea90830184611e1c565b9695505050505050565b6020808252825182820181905260009190848201906040850190845b81811015611f3657611f23838551611e48565b9284019260a09290920191600101611f10565b50909695505050505050565b602081526000610a2b6020830184611e1c565b6020808252602d908201527f4552433732313a2063616c6c6572206973206e6f7420746f6b656e206f776e6560408201526c1c881bdc88185c1c1c9bdd9959609a1b606082015260800190565b60208082526032908201527f4552433732313a207472616e7366657220746f206e6f6e20455243373231526560408201527131b2b4bb32b91034b6b83632b6b2b73a32b960711b606082015260800190565b60208082526025908201527f4552433732313a207472616e736665722066726f6d20696e636f72726563742060408201526437bbb732b960d91b606082015260800190565b60208082526023908201527f486f706566756c6c792073656e64696e672074686520636f727265637420707260408201526269636560e81b606082015260800190565b60a081016104a48284611e48565b6000821982111561209d5761209d612124565b500190565b60005b838110156120bd5781810151838201526020016120a5565b83811115610c065750506000910152565b600181811c908216806120e257607f821691505b6020821081141561210357634e487b7160e01b600052602260045260246000fd5b50919050565b600060001982141561211d5761211d612124565b5060010190565b634e487b7160e01b600052601160045260246000fd5b634e487b7160e01b600052604160045260246000fd5b6001600160e01b0319811681146111b457600080fdfea26469706673582212203ff20b0b6ebee0b131620c51d241c10db9421cbd899053ab5dcd8a355680926464736f6c63430008040033",
  "linkReferences": {},
  "deployedLinkReferences": {}
}